:100000000C9434000C948C000C9451000C9451000E
:100010000C9451000C9453000C9451000C9451001A
:100020000C9451000C9451000C9451000C9451000C
:100030000C9451000C9451000C9451000C945100FC
:100040000C9451000C9451000C9451000C945100EC
:100050000C9451000C9451000C9451000C945100DC
:100060000C9451000C94510011241FBECFEFD8E026
:10007000DEBFCDBF11E0A0E0B1E0E6E5F2E002C0F6
:1000800005900D92AA39B107D9F721E0AAE9B1E0AC
:1000900001C01D92A13AB207E1F70E94E0000C9462
:1000A00029010C9400001F920F920FB60F92112499
:1000B0002F933F934F935F936F937F938F939F9370
:1000C000AF93BF93EF93FF9381E091E00E94FE0016
:1000D00080919A01882369F087FF05C05C9A82E2CB
:1000E00091E00E94FE0080919A01880F80939A010E
:1000F000EFCF85B185B9FF91EF91BF91AF919F91FE
:100100008F917F916F915F914F913F912F910F90C0
:100110000FBE0F901F9018951F920F920FB60F925F
:1001200011242F933F934F935F936F937F938F93FC
:100130009F93AF93BF93EF93FF938091000180FF54
:100140000AC080919A01806880939A015A9A81E549
:1001500091E00E94FE008091000127E030E0E1E0A4
:10016000F0E0682F70E0022E02C0759567950A9442
:10017000E2F721503109AF01022E01C0440F0A9469
:10018000EAF760FF1AC0842B2115310551F7816011
:100190008093000185B185B9FF91EF91BF91AF9137
:1001A0009F918F917F916F915F914F913F912F918F
:1001B0000F900FBE0F901F90189540958423E4CFA9
:1001C0008AB18C618AB95C9A84B184B98AB18F7919
:1001D0008AB98BB180668BB9809169008260809307
:1001E0006900E89A8091680084608093680080913B
:1001F0006D00806280936D007894FFCF0F931F9302
:10020000CF93DF93E0919D01F0919E012381EC015A
:1002100010E000E021FD08C00FEF1FEF14C00995AA
:10022000892B11F00FEF1FEF899160919D01709163
:100230009E01DB011896ED91FC918111F0CF8AE0CF
:100240000995892B49F7C801DF91CF911F910F9133
:060250000895F894FFCFB1
:10025600FF5265636F6C68656E646F207065C3A737
:10026600617320646566656974756F7361732E2E9C
:100276002E004C454420414D4152454C4F20616370
:1002860065736F21205065C3A76120646566656943
:1002960074756F7361207265636F6C686964612E33
:1002A600004C4544205645524D454C484F2061630D
:1002B60065736F21205065C3A76120646566656913
:1002C60074756F73612064657370616368616461DE
:1002D60020706172612061207072C3B378696D61AC
:0A02E60020657374656972612E00D3
:00000001FF
