:100000000C9434000C943E000C943E000C945B0065
:100010000C943E000C9440000C943E000C943E0066
:100020000C943E000C943E000C943E000C943E0058
:100030000C943E000C943E000C943E000C943E0048
:100040000C943E000C943E000C943E000C943E0038
:100050000C943E000C943E000C943E000C943E0028
:100060000C943E000C943E0011241FBECFEFD8E04C
:10007000DEBFCDBF0E9485000C94A2000C9400004E
:100080001F920F920FB60F9211242F938F939F936D
:10009000299A2FEF87EA91E6215080409040E1F7BE
:1000A00000C0000029989F918F912F910F900FBE53
:1000B0000F901F9018951F920F920FB60F92112458
:1000C0002F938F939F931A9B0BC05E9A2FEF89E615
:1000D00098E1215080409040E1F700C000005E9818
:1000E000189B0BC05F9A2FEF83ED90E32150804067
:1000F0009040E1F700C000005F989F918F912F9191
:100100000F900FBE0F901F9018958AB1806E8AB91C
:10011000219A8091680084608093680080916D00CE
:10012000806180936D00789490E28BB189278BB9C0
:100130002FEF34E38CE0215030408040E1F700C0E5
:080140000000F3CFF894FFCF9B
:00000001FF
